:100000008FC20000C6C20000C4C20000C2C200000D
:10001000C0C20000BEC20000BCC20000BAC20000E4
:10002000B8C20000B6C200000C94B2230C947E2427
:100030000C941B1FAEC20000ACC20000AAC200009C
:10004000A8C20000A6C20000A4C20000A2C2000014
:10005000A0C200000C94921F9CC200009AC2000033
:1000600098C2000096C2000094C2000092C2000034
:1000700090C200008EC200008CC200008AC2000044
:1000800088C2000086C2000084C2000082C2000054
:1000900080C200007EC200007CC200007AC2000064
:1000A00078C2000076C2000074C20000BC00B2003A
:1000B00000000001000000FF00000000000100003F
:1000C000FFFF0000000029003A003B003C003D001B
:1000D0003E003F0040004100420043004400450014
:1000E0006800000035001E001F00200021002200D3
:1000F000230024002500260027002D002E002A00C2
:100100004A002B0014001A000800150017001C00FC
:1001100018000C00120013002F00300000004D00EA
:10012000390004001600070009000A000B000D004A
:100130000E000F0033003400280031004900000099
:10014000E1001D001B000600190005001100100051
:10015000360037003800E50052004C00E000E300B4
:10016000E2000000000000002C0000000000000081
:10017000E600E400500051004F001E0F0500047F10
:100180003F1F643214643214783C1E1E140A052288
:1001900023252628292A2C2D2F3032333536383A7C
:1001A0003B3D3E4042434547494A4C4E50515355D2
:1001B00057595A5C5E6062646668696B6D6F7173F3
:1001C0007577797B7D7F81838587898A8C8E9092F4
:1001D0009496989A9C9E9FA1A3A5A7A8AAACAEAFFF
:1001E000B1B3B4B6B8B9BBBCBEBFC1C2C3C5C6C744
:1001F000C9CACBCCCDCED0D1D2D2D3D4D5D6D7D7F5
:10020000D8D9D9DADADBDBDBDCDCDCDCDCDDDDDD3C
:10021000DDDCDCDCDCDCDBDBDBDADAD9D9D8D7D738
:10022000D6D5D4D3D2D2D1D0CECDCCCBCAC9C7C6E5
:10023000C5C3C2C1BFBEBCBBB9B8B6B4B3B1AFAE23
:10024000ACAAA8A7A5A3A19F9E9C9A9896949290C9
:100250008E8C8A89878583817F7D7B7977757371A1
:100260006F6D6B6968666462605E5C5A595755537E
:1002700051504E4C4A4947454342403E3D3B3A3837
:1002800036353332302F2D2C2A292826252322FFDC
:10029000AA7F554000010101010101010101020293
:1002A0000202020202020203030303030303030424
:1002B00004040404040405050505050606060606EF
:1002C000070707070708080808090909090A0A0AA9
:1002D0000B0B0B0C0C0C0D0D0D0E0E0E0F0F0F104B
:1002E00010111111121213131414151516161717D5
:1002F000181819191A1A1B1B1C1D1D1E1E1F202041
:10030000212222232424252626272829292A2B2C8A
:100310002D2D2E2F30313232333435363738393AAD
:100320003B3C3D3E3F404142434445464748494AA5
:100330004C4D4E4F50515354555658595A5B5D5E73
:100340005F616264656668696B6C6D6F707273750E
:1003500077787A7B7D7E8082838587888A8C8E8F72
:1003600091939596989A9C9EA0A2A3A5A7A9ABADA0
:10037000AFB1B3B5B7BABCBEC0C2C4C6C9CBCDCF8E
:10038000D1D4D6D8DBDDDFE2E4E7E9EBEEF0F3F53C
:10039000F8FAFDFF1E03460075006A006900370089
:1003A00035005F0068006F00740073007700610023
:1003B000700000001E03530061006B0075007200A6
:1003C000610057006F0072006B00730068006F00DF
:1003D000700000000403090409023B00020100A0B0
:1003E000FA090400000103010100092111010001C3
:1003F00022440007058103080001090401000103EC
:1004000000000009211101000122B6000705820346
:100410002000011201000200000008575338460076
:10042000010102000105010902A10185020901A1E2
:100430000005091901290815002501950875018194
:10044000020501093009311581257F950275088162
:100450000609381581257F950175088106050C0A66
:1004600038021581257F950175088106C0C00501F8
:100470000980A101850319012AB700150126B700DB
:10048000950175108100C0050C0901A101850419B1
:10049000012AA002150126A002950175108100C055
:1004A00005010906A1018506050719E029E71500E0
:1004B00025019508750181020507190029EF15002E
:1004C000250195F075018102050819012905950599
:1004D00075019102950175039101C005010906A1FD
:1004E00001050719E029E715002501950875018127
:1004F000029501750881010507190029FF150026DD
:10050000FF009506750881000508190129051500E9
:100510002501950575019102950175039101C000B2
:1005200011241FBECFEFDAE0DEBFCDBF04B603FE5D
:1005300019C080914A0390914B03A0914C03B09154
:100540004D038730904BA740B04B61F410924A03A3
:1005500010924B0310924C0310924D03E0E0F8E32D
:10056000099500C011E0A0E0B1E0E0E0F0E502C0D4
:1005700005900D92A63EB107D9F723E0A6EEB1E0B3
:1005800001C01D92AA34B207E1F70E9461110C94D8
:10059000A12736CD8CEA90E08093CE029093CF02D3
:1005A0000C94950CCF93DF9381FBCC27C0F91DD120
:1005B000D82F811549F06C2F80E00E949E1281E0B7
:1005C0006C2F68270E949E128D2FDF91CF91089586
:1005D000811114C0663090F44F3080F4E42FF0E0C5
:1005E0008FE0689FE00DF11D1124EE0FFF1FEA530D
:1005F000FF4F85919591282F822F089521E090E05B
:10060000FBCFE6CF089581E0089581E00895FBCF08
:10061000089581E0089581E00895FDCF089508953B
:100620000895FDCF089508950895A6E0B0E0EBE1A8
:10063000F3E00C94A12649835A839E833091ED0107
:1006400089819A81311117C03E81311589F02115B8
:1006500079F002D5182F682F89819A81DCD46981BD
:100660007A81812F0E94390E2696E3E00C94BD26F4
:10067000E3D4182FF4CFF0D469817A81F3CFFC0151
:10068000262F408151816281738184819581CDCFF4
:10069000CF93DF93EC0161E0F2DFBE01B6DF81159D
:1006A00029F061E0CE01EBDFBE01B1DFDF91CF9138
:1006B00008950F931F93CF93DF93EC0160E0DFDF8A
:1006C0008C01BE01ADDFBE01C801ABDFDF91CF9170
:1006D0001F910F9108950F931F93CF93DF93EC0118
:1006E00061E0CDDF8C018D8181110E945418BE0123
:1006F000C8018FDF811106C080E0DF91CF911F918B
:100700000F910895BE01C80188DF8115A9F3BE01CC
:10071000C8010E945E1C811579F3BE01C8010E94C8
:10072000D518811549F3BE01C8010E94AC18811586
:1007300019F3BE01C8010E9477118115E9F2BE01CB
:10074000C8010E943C0F8115B9F2BE01C8010E9488
:100750004E0F811589F2BE01C8010E94680FCDCFEE
:1007600021E030E002C0220F331F8A95E2F7C90171
:100770008DC3CF93C82F81E090E00C2E02C0880F6C
:10078000991F0A94E2F70E944C0C8C2FE9DFCF915D
:10079000089581E0089581E00895FBCF0895CF93F7
:1007A000C82F23D38C2FF7DF8C2FF7DF8FEF94E345
:1007B0002CE0815090402040E1F700C00000CF9134
:1007C000089581E0ECDF0C94B61F80E0E8DF0C9424
:1007D000DA1F29DF0E94B41E0DD00C94DF160CD056
:1007E0000E94941721DF0C94B81E81E008950895AB
:1007F000D9CE089580E0FCCF0E94AC1CF9CFCF93F6
:100800000E94AC1CC82F8091E8018C1771F0C09336
:10081000E8010E94861F6093E9017093EA018093CA
:10082000EB019093EC018C2FE3DFCF910895ADE0C5
:10083000B0E0EDE1F4E00C94A226488759876A877E
:100840007B878C879D87911115D71F8286E0FE01DB
:1008500038969E012F5F3F4FD90101900D928A95E6
:10086000E1F78D8181110CC029813A814B815C8136
:100870006D817E818F8149D62D96E2E00C94BE2653
:10088000CE01019605DF8111EFCFF6CFFC01248167
:10089000213019F48081918112C40895611521F0ED
:1008A0000E94311A0C94E61A0E94711AFBCFCF9362
:1008B000C82F811581F08450813A78F48C2F0E94E2
:1008C000601D811521F08C2F0E94FD1D5ED78C2F9D
:1008D0000E94E61D5AD7CF9108958C2F805E8830F4
:1008E00048F481E0C1FD84E0C0FD880FC2FD82951F
:1008F000A2D6F0CF8C2F855A833030F48C2F8452BF
:10090000990B0E94EC1CE7CFEC2FE85AEB3150F426
:10091000F0E0EE0FFF1FEF5CFE4F808191810E949F
:10092000131DD9CF8C2F8D5C8331A8F661E08C2FFD
:10093000B5DFD1CF811559F1982F9450913A18F421
:100940000E94FD1D22C7982F905E983050F4982F7A
:1009500081E091FD84E090FD880F92FD829571D633
:10096000F1CF982F955A933020F480E090E00C94CA
:10097000EC1C982F985A9B3120F480E090E00C9466
:10098000131D982F9D5C933110F460E087CF08957C
:100990001F93CF93DF93182FEB0189DF209731F45A
:1009A000812FC8DFDF91CF911F9108958FE99FE0DC
:1009B0000197F1F700C000002197F0CF60E570E0EB
:1009C000893311F060E070E0E3CF811511F033D688
:1009D000DCC60895811511F034D6D7C60895A0E07D
:1009E000B0E0E5EFF4E00C949C266C01D62FC72F05
:1009F000FC011581068102950F7012D6E82E811533
:100A0000E9F0E12E1115D1F08C2F807F803461F058
:100A10008D2F805E8830E0F08C2F807E803221F434
:100A2000D230B0F00115A1F08091150382FF10C003
:100A300082E0CFD6F5D591E08927E82EEC2FE2951C
:100A4000EF70C03C78F5F0E0ED55F84D0C947C2645
:100A5000E12CF4CF0C2F0F70C03110F00295007F05
:100A6000111581F0011549F08D2F805E883010F04E
:100A7000D11105C0802FDFD588D68D2F40C0802FA3
:100A8000EBD5FACF8D2F56DF011561F08D2F805EEB
:100A9000883010F0D11103C0802FD3D502C0802F31
:100AA000E1D573D6E11409F4B3C0B6D580FDB0C06A
:100AB000F6011582ABD51AD2C60168D1A7D524D2CA
:100AC000A7C08C2F8F70F82EC07FC03219F0F2941F
:100AD00080EFF822D13038F079F1111509F438C0DF
:100AE0000115C9F0CACF8091150382FD10C0111500
:100AF00041F0F11419F08F2D9ED547D680E0D7DE56
:100B0000D1CF80E017DFF11469F28F2DC6CF111518
:100B100051F0013018F48F2D58DFC4CF09F0C2CF47
:100B20008F2DBCD5BFCF0111BDCF8F2D53DF8F2DA2
:100B3000C0D58F2DA5D5B6CF111521F0063008F000
:100B4000B1CFE9CF053008F0ADCF8F2D43DFAACF6D
:100B50000115D9F3D93349F48FEF97EE23E0815093
:100B600090402040E1F700C000008D2FE3DE9ACFD7
:100B70008C2F869586958370813060F009F092CF36
:100B80008D2F9C2F9370111102C080E090E00E9485
:100B9000131D88CF8D2F9C2F9370111102C080E000
:100BA00090E00E94EC1C7ECF612F8D2F77DE7ACFF4
:100BB0008C2F8370C1F5111128C04D2F4295469599
:100BC0004770440F440F2D2F2F7030E0042E02C0C9
:100BD000220F331F0A94E2F780E090E0D4FF09C0AF
:100BE0008FE090E002C0880F991F4A95E2F7809548
:100BF0009095C695C695C370822B932BC23079F021
:100C0000C33079F0C13049F04AD10E94AC1CF0DD0C
:100C1000CDB7DEB7E8E00C94B8263AD1F6CF46D18E
:100C2000F4CF34D1F2CF111559F1C0FFEECF4D2FD3
:100C3000429546954770440F440F2D2F2F7030E09A
:100C4000042E02C0220F331F0A94E2F780E090E0E6
:100C5000D4FF09C08FE090E002C0880F991F4A9529
:100C6000E2F780959095C695C695C370822B932B1D
:100C7000C23061F0C33061F0C13031F06AD1C5CF0C
:100C8000823008F4C2CFD3CF5DD1BFCF69D1BDCF01
:100C90001AD1BBCFCF70111529F08C2F27D18D2FF2
:100CA00094DEB3CF8D2F96DE8C2F2ED1AECFD23FD8
:100CB00031F168F4D03FC1F0D13F89F0111509F44A
:100CC0003EC0011509F438C08D2FF1DD9ECFD33F12
:100CD000E1F0D43F99F78091150382FD1EC08C2F5F
:100CE0008F71111511F30FC0111539F0053008F08F
:100CF0008CCF8C2F8F7118D188CF0630F8CF8C2FE6
:100D00008F711111D2CFF2D080CF111521F08C2F1D
:100D10008F71E3D07ACFDED078CF111529F063E060
:100D20008C2F8F713FD571CF81E053D5023008F4FD
:100D30006CCF82E04ED569CF8C2F8F71E4CF011537
:100D400071F0D93349F48FEF97EE23E08150904052
:100D50002040E1F700C000008D2FECDD56CF8C2F36
:100D60008F71A3CF0F931F93CF93DF93EC01688113
:100D700079818D81ADD18C01FAD087D0B801CE01B7
:100D80002EDEDF91CF911F910F910895CF93DF93C6
:100D9000EC018C81811581F0CE019DDC81110FC0A9
:100DA0003FD4811549F08D81811531F08091150373
:100DB00082FF02C082E00DD5DF91CF910895CE0170
:100DC000D1DFCE0176DCF8CF80E090E00E94EC1C11
:100DD00080E090E00E94131D4DD4D7D40E94FF1AEA
:100DE0000C94E61A0E94141EEFCF33D4FBCF282FA9
:100DF00092959F70963099F060F4925F9F70923058
:100E000030F4203FB1F038F481E0283E38F080E043
:100E100008959A5FF3CF81E0243FC9F7089591E0E8
:100E2000813F09F090E081E0283E08F080E0892BC6
:100E3000089581E00895FC012481211521F080812D
:100E400091813DD1D4CF80E00895A6E0B0E0EBE2FF
:100E5000F7E00C94A2262696E2E00C94BE26A7E0CA
:100E6000B0E0E5E3F7E00C94A2262796E2E00C94CC
:100E7000BE260895FECF0895FDCF0895FADFFCDF6A
:100E8000809320029093210208950895F7CF08954A
:100E90002091200230912102822B932BEFCF2091C1
:100EA00020023091210282239323E8CF2091200257
:100EB0003091210282279327E1CFDBCF0895FDCF28
:100EC0000895D7CF0895FDDFFADF80931E02909337
:100ED0001F02089580E090E0F6CF21E030E002C0EC
:100EE000220F331F8A95E2F7C901EDCF21E030E0F0
:100EF00002C0220F331F8A95E2F780911E02909163
:100F00001F02822B932BDFCF21E030E002C0220FA3
:100F1000331F8A95E2F72095309580911E029091BB
:100F20001F0282239323CFCF21E030E002C0220FA3
:100F3000331F8A95E2F780911E0290911F0282274B
:100F40009327C1CF20911E0230911F02822B932B39
:100F5000BACF20911E0230911F0282239323B3CF78
:100F600020911E0230911F0282279327ACCF089553
:100F7000CF93C1E061FDC4E060FDCC0F62FDC2957E
:100F800093E0769567959A95E1F7660F771F660F60
:100F9000771F460F571FFA0140E050E090E0619143
:100FA000DF019C01042E02C0369527950A94E2F7D2
:100FB0002695220B26272C2326272E934F5F5F4F43
:100FC0004430510561F7CF910895A82FA77023E011
:100FD000969587952A95E1F7880F991F880F991F95
:100FE000680F791FFB0140E050E080E0219130E084
:100FF0000A2E02C0369527950A94E2F72170042E36
:1010000001C0220F0A94EAF7822B4F5F5F4F4430F2
:10101000510561F70895262F963068F48F3058F403
:10102000682F70E08FE0989F600D711D11244EEEC7
:1010300051E0822F9DCF0895292F963058F48F309C
:1010400048F490E06EEE71E03FE0239F800D911D2B
:101050001124BBCF80E00895CF92DF92FF920F93CF
:101060001F93CF93DF936C0100911E0210911F021A
:101070008091200290912102082B192BCFE0D0E023
:1010800081E090E00C2E02C0880F991F0A94E2F7CD
:1010900080239123892B61F4219790F7F12C8F2DD8
:1010A000DF91CF911F910F91FF90DF90CF90089526
:1010B000FC2EB6018C2FE8D5019771F3F0CFCF93BA
:1010C000DF93EC01C9DFBE01DFD5DF91CF91089539
:1010D0001F93CF93DF93EB019091ED01911531F0C8
:1010E000CB01EDDFDF91CF911F910895811551F074
:1010F000CB01B2DF182F682FCE018DDFBE01812F0B
:10110000C3D5F0CFCB0198DF182FF8CF0F931F93E3
:101110000091220280912302801303C01F910F913E
:10112000089587E0089FF0011124EC5DFD4F2081B8
:1011300031814281538164817581868190DE0F5FA8
:101140001F4F0770E7CF20915C0230915D02409104
:101150005E0250915F026091600270916102809125
:1011600062027DCE80916202803170F480916102D2
:10117000811551F0E09122022091230230915D020D
:1011800040915C022E1301C00895BF0187E0E89FE3
:10119000F0011124DF01AC5DBD4F14968C911497C2
:1011A000811549F111968C911197831324C08C916C
:1011B000841321C015968C91159781111CC012962D
:1011C0008D919D91A0915E02B0915F028A1B9B0B55
:1011D000883C910580F4809162028F7080618093D9
:1011E0006202E65DFD4F80818F70806180838CE5B7
:1011F00092E0CCDD8BCF6F5F7F4FFB01E770C2CFFA
:10120000E091220290912302E91302C080E0089548
:101210009F0157E0E59FF0011124EC5DFD4F5181E6
:10122000561306C05081581303C05581541305C08E
:101230002F5F3F4FF901E770E7CF81E008958F926C
:101240009F92AF92BF92DF92EF92FF920F931F9304
:10125000CF93DF93CDB7DEB72D970FB6F894DEBFEF
:101260000FBECDBF8C0186E0F801DE01189601901B
:101270000D928A95E1F7F801F58084819CE5892E2D
:1012800092E0992E90916002911117C0811509F496
:10129000EFC0F11409F42EC1C801CDDD811509F4A8
:1012A00029C187E0F801D40101900D928A95E1F7F8
:1012B000C401ECDA57DF47DFDBC0E080A280B380F7
:1012C000D090610220915E0230915F02A501421B25
:1012D000530BD11409F4CFC0483C510508F09EC00F
:1012E000811509F4C5C090915D02918080916202E0
:1012F000803108F065C0991226C090915C029E1161
:1013000022C0F11057C08F708061809362021BDF92
:101310008CE592E03BDD80916202F8018683F12C3E
:101320008F2D2D960FB6F894DEBF0FBECDBFDF9187
:10133000CF911F910F91FF90EF90DF90BF90AF90F2
:101340009F908F900895F11035C040E0692D8E2D4B
:1013500057DF40E0692D8E2D53DFF82E8111DFCF4E
:1013600088859985ACDE292F22952F70903450F412
:101370009F70223078F0911591F0F80196819031AC
:1013800070F4CECF2A5F2F70223070F0C801FEDCDF
:10139000FD2CC6CF911519F0811509F4C1CF805EDF
:1013A000883008F4BDCFF2CF803F08F4B9CF815F19
:1013B0008330F7CF80916202816080936202AFCF69
:1013C000991207C090915C029E1103C0F11409F4B8
:1013D00073C0C80130DD811509F48CC0F11409F423
:1013E00089C080916202803280F020915C0230914D
:1013F0005D0229833A83AB82BC82909160029D8317
:101400001E828F83CE010196C1DC87E0F801ACE536
:10141000B2E001900D928A95E1F74CCF9091620273
:10142000903188F4488559856A857B858C859D85B2
:101430000CDD8CE592E0AADCF40187E011928A953C
:10144000E9F781DE6CCF811599F020915D028181F1
:101450002813BFCF80915C028E11BBCFF110B9CFA2
:101460009683C80193DCF40187E011928A95E9F72D
:10147000FF24F39455CF483C510508F03EC0811538
:10148000B9F3F114B9F190915D028181981329C0EB
:1014900080915C028E1125C08091620280FD18C08F
:1014A0008031B0F08683807F803F39F08681982F2D
:1014B000907F905F8F70892B8683C80167DC87E0FF
:1014C000F801ACE5B2E001900D928A95E1F7F3CE18
:1014D00087E0F801ACE5B2E001900D928A95E1F762
:1014E000C7CFC801A8DC811190CF809162028160D2
:1014F00080936202C8014ADCBBCF488559856A8562
:101500007B858C859D85A1DC97CFAEE0B0E0EBE8D4
:10151000FAE00C94A126288739874A875B876C8775
:101520007D878E87CE0108968ADE6C85811599F0BD
:10153000611539F0288539854A855B857D858E85DD
:101540008EDC809122029091230289133DC02E9659
:10155000E3E00C94BD2687E09E01285F3F4FF90130
:1015600027503109D90101900D928A95E1F7611553
:1015700041F3A09123028A2F90E08395877090E039
:10158000AC01209122022417150691F097E09A9F52
:10159000D0011124AC5DBD4F9E012F5F3F4FF9017B
:1015A00001900D929A95E1F740932302AFDDC9CFE8
:1015B0001CDC1092230210922202ECE5F2E087E09C
:1015C00011928A95E9F7BDCF17E0189FC001112449
:1015D0008C5D9D4F34DE811509F4B9CFE091220274
:1015E0001E9FF0011124EC5DFD4F2081318142816D
:1015F000538164817581868132DC809122029091D1
:10160000230201968770809322029BCF80918B02E8
:10161000869586958695089580918B0287700895AA
:1016200090918B02977081E0911101C080E0089544
:101630008091B70208959091B702982B9093B702CA
:1016400008958095982F8091B70289238093B702DF
:1016500008951092B70208959091B602982B909336
:10166000B60208958095982F8091B60289238093C1
:10167000B60208951092B60208950895FECF089517
:1016800090918C02292F282329F08095892380931B
:101690008C02F4CF08950895FECF089590918D02A5
:1016A000292F2823281721F0982B90938D02F4CF0F
:1016B000089590918D02292F282329F08095892360
:1016C00080938D02E9CF089580918D02811521F0DC
:1016D00010928D0280E0E0CF0895CF93C091B702C1
:1016E0008091B602C82B80918D02811529F0C82BFC
:1016F0000E943A1D8111E8DF8C2FCF910895CF937E
:10170000DF93C0910601D0910701E7DF8883C09184
:101710000601D091070148E050E063E872E0CE0195
:101720000E943227892B59F088E0FE01A3E8B2E03D
:1017300001900D928A95E1F7CE010E94BB1CDF91CA
:10174000CF910895CF93DF93C0910401D09105010B
:10175000C4DF8983C0910401D091050140E250E0CB
:1017600063E672E0CE010E943227892B59F080E2B5
:10177000FE01A3E6B2E001900D928A95E1F7CE0159
:101780000E94C81CDF91CF9108950E94A51C81156D
:1017900029F08091140387FF01C0D4CFB0CF089502
:1017A000FECF08959091150392FF0EC0982F990FC8
:1017B000990F990F962B90938B0298DB80918B0257
:1017C000869586958695ECCF91CB10928B0280E022
:1017D000E7CF90918B028095892380938B02282FED
:1017E000277059F4891749F09091150392FF05C0AD
:1017F00086958695869588DBE8CF089590911503A8
:1018000092FB222720F9281749F080FB92F9909348
:10181000150384E193E044D082E0DBCF089580910A
:101820001503002482FF0394802DE8CF81E0E6CFEA
:1018300080E0E4CF80E090E0BC01FEC380E090E077
:10184000BC01F4D3F7CFA3E0B0E0E9E2FCE00C94F4
:10185000A22658D363D31B82CE01039676D381E0B0
:1018600090E080932002109221027BD3198284E1C0
:101870008A83CE01019686D334D6E0DF2396E2E058
:101880000C94BE26E0CF08954FC308953CC308953D
:1018900051C3089560C3089564C3089567C308954C
:1018A00071C3089576C30895A8C30895CBC308955E
:1018B000A6E0B0E0EEE5FCE00C94A0260E947A1FC2
:1018C0008C018091B8029091B9028017910779F04C
:1018D00019821A820E947A1FBC0149815A8180E0D4
:1018E00090E00E9417040093B8021093B902269664
:1018F000E4E00C94BC260E94861F6093BE027093A5
:10190000BF028093C0029093C1026093BA027093A9
:10191000BB028093BC029093BD0208950895089580
:10192000FDCF08950895FEDFFBCF08950895FEDFF3
:101930000C94CA028AE39FE0D5D4F1DFF4CF81E0B2
:10194000089581E00895FBCF0895089508950895BE
:10195000FCDFFCDFFCCF9ADF811101C093DF82EC5A
:1019600092E096DF84E193E099DF0E94AA1892DF6B
:101970008DDA80911E0290911F02A1CA0E94711FF0
:1019800019D4E9DF0E94A31C0E94F7030E94681784
:10199000CECFA6E0B0E0EFECFCE00C949626D1DFD1
:1019A00081110DC085DF0E94A41C0E9455180E9461
:1019B000201B0E94FF032696EEE00C94B22609D469
:1019C00028E0822E23E0922E740110E0F701C080FF
:1019D000D180812F42D31F5F163009F450C022E01E
:1019E000E20EF11CC816D90689F38091C20281FD6E
:1019F0003DD3A9DF682E10E0812F2FD37C01F401A5
:101A0000A190B1904F018A159B0599F1A826BF249A
:101A100000E091E0C92ED12CC5018C219D21892B9C
:101A200001F177247394C7018C219D21892B09F43E
:101A3000712C611489F0602F812F0E94DC1E8111AE
:101A40000BC009831A830E947A1FBC0149815A8105
:101A500081E0972D0E941704472D602F812F0E944F
:101A6000F31E0F5FCC0CDD1C0F30B1F6F401F292C7
:101A7000E2921F5F163009F0BFCF3DDF94CFC8164A
:101A8000D90609F0B2CF8ECF0F931F93CF93DF9378
:101A9000FDD0EC01D23508F050C0D03508F0C8C0F8
:101AA000C03ED10530F5CD3CD10508F09DC0C83A07
:101AB000D10578F4C53AD10508F093C0C130D105FD
:101AC000B1F1CE010497813A910588F1C0E0D0E0F0
:101AD0002EC0CE01885A91094B97C0F7C85AD0E062
:101AE000CC0FDD1FC959DE4F0990D881C02DD464B9
:101AF0001EC0D034A8F4D03208F0ADC0C83ED10525
:101B0000B0F0CE0191509F3108F78D2F62D1082F90
:101B10008C2F90E0BBD0D02FDF71C82FD92B07C0FE
:101B20008C2F90E0B3D0DF70C82FD92BD06ACE01B4
:101B3000DF91CF911F910F910895C03882E5D807AA
:101B4000B8F5C03682E5D80708F056C0C03482E543
:101B5000D807C8F4C03282E5D80708F047C08C2FF8
:101B60008695869520E2829FC0011124C37021E0F2
:101B700030E002C0220F331FCA95E2F7E901C82BFB
:101B8000D92BDD68D4CF8C2F86958695877020E27F
:101B9000829FC0011124C37021E030E002C0220FF7
:101BA000331FCA95E2F7E901C82BD92BDC68BFCFF8
:101BB000C03C82E5D80750F48C2F8F71C03AD245D3
:101BC00080F5982F84EF906AEC01B1CFCE01805C54
:101BD0009245809708F07ACFDC2FDF71C0EFD06A92
:101BE000A6CFA497D064A3CFD065A1CF8C2F8F713F
:101BF000D82FC1EFD06A9BCF8C2F869586958770A2
:101C000020E2829FC0011124C37021E030E002C0B5
:101C1000220F331FCA95E2F7E901C82BD92BDA68E6
:101C200086CFD7D0982F80E09F71EC01D0627FCF14
:101C30008C2F8F71CED053E0CC0FDD1F5A95E1F77A
:101C4000DF70282F84FF04C090E1899F9001112448
:101C5000C22FD0696CCF8D2F8F71BBD0082F8C2FE6
:101C600090E014D0302F3F71282F392B3062E901DA
:101C70005ECF462F763028F46F3018F4672F0C941F
:101C8000010380E090E00895F4DFFECE803E9105F0
:101C9000D1F1C8F48133910509F481C048F4893247
:101CA000910509F471C08A32910509F47FC0089545
:101CB00089339105E1F082389105C9F085339105AA
:101CC00009F45DC00895843E9105D1F148F4823E47
:101CD000910531F1833E910541F181EE90E0089547
:101CE000863E9105C1F1873E9105F1F1089520915D
:101CF0001403237009F064C02091150323FF14C05E
:101D000089E290E008952091140320FD45C03091B0
:101D1000150330FF09C024FD24C083EE90E0089530
:101D20002091140322FDF7CF08952091140322FD82
:101D300044C03091150330FD43C024FFF5CF11C0DE
:101D40002091150321FFF0CF8091140384FD09C079
:101D500087EE90E008952091140323FFE5CF24FF40
:101D6000F7CF80E090E008952091140323FD2BC06D
:101D70003091150331FFE1CF84EE90E0089520917A
:101D8000140325FFD1CFBCCF2091140325FD1EC025
:101D90002091150323FFC8CF89E390E00895209197
:101DA000140326FFC1CF8AE290E008952091140326
:101DB00026FFBACF81E390E0089582EE90E0089587
:101DC00080EE90E0089586EE90E0089585E390E03F
:101DD00008959091140392FF10C041E0282F2471C0
:101DE000243009F040E031E0282F2871283009F034
:101DF00030E0431711F02CE0822793FF10C041E040
:101E0000282F2471243109F040E031E0282F287177
:101E1000283109F030E0431711F02CE0822730918F
:101E2000150330FF10C051E0282F2171213009F037
:101E300050E041E0282F2871283009F040E0541785
:101E400011F029E0822731FF10C041E0282F2171D5
:101E5000213109F040E031E0282F2871283109F0C4
:101E600030E0431711F029E0822794FF02C083FD80
:101E7000877E089580E00895CF939C01205E3245CF
:101E8000C1E02032310538F4FB01C581C11103C026
:101E90008F710E94B9038C2FCF9108959C01FB0193
:101EA0008581811599F02B359CE7390769F02C3530
:101EB0009CE7390721F02A353C4721F00895AFDC33
:101EC00080E00895B3DCFCCFB3DCFACF81E0089565
:101ED0009C01FB018581811599F021309CE7390730
:101EE00061F023309CE7390739F021153C4749F46C
:101EF0000E94E10380E00895C7DC0E94E503FACF69
:101F000081E00895089580E090E00E944C279C01B4
:101F100081E0233E3E4F09F080E0089563EE7EEFBE
:101F200080E090E00C946B276FEF7FEF80E090E013
:101F30000C946B27CF93DF93EC0182E090E00E943A
:101F40003F278883DF91CF910895FC01608182E073
:101F500090E00C94512783E090E00E943F2790E0AE
:101F60000895682F83E090E00C945127CF93DF937E
:101F7000EC0184E090E00E944C2788839983DF91F4
:101F8000CF910895FC016081718184E090E00C9410
:101F90006B278F929F92AF92BF92CF92DF92EF9278
:101FA000FF920F93CF93DF93EC0188E090E00E94C3
:101FB00047274B015C01688399828A83BB821C821C
:101FC0001D821E821F8283E290E00E943F279401BF
:101FD000A50188823983AA825B838C831D821E823D
:101FE0001F82DF91CF910F91FF90EF90DF90CF9004
:101FF000BF90AF909F908F9008950F93CF93DF93F2
:10200000EC01488159816A817B8188E090E00E94DF
:1020100063276C81262F60E070E0CB01622F83E2A2
:102020000E945127DF91CF910F910895AB01BC0120
:102030008FE090E00C946327AB01BC0183E190E05A
:102040000C946327682F8EE090E00C94512708953C
:10205000FECF08950895FECF0895E82FF0E0EE0F2B
:10206000FF1FEE5DFC4F808191810895089580EA05
:102070008A95F1F7089500C00895F9CF0895F8946E
:10208000E82FE295EF70F0E041A18F7021E001C0F0
:10209000220F8A95EAF7922F9095942391A392A10B
:1020A000822F892B82A378940895CF93DF93CCEA73
:1020B000D1E089918F3F09F0E2DF81E0C23BD80790
:1020C000C1F7CDE9D1E089918F3F09F0D8DF81E0F8
:1020D000CC3AD807C1F7DF91CF910895AF92BF9264
:1020E000DF92EF92FF920F931F93CF93DF935C01E8
:1020F000D62EC62FD0E08E0104551E4FF8018081E8
:102100008F3F09F44BC0F894E82FE295EF70F0E0B0
:1021100091A18F7021E001C0220F8A95EAF7892FE3
:10212000822B81A382A12095282322A37894A3DF68
:10213000EDE9F1E021E030E0E12CF12C41914F3F5D
:1021400079F0A42FA295AF70A05EB0E08C9190E0E2
:102150004F7002C0959587954A95E2F780FF28C099
:1021600080E090E0E82AF92A220F331F81E0EC3A60
:10217000F80721F7F80180818F3F09F080DF61E0E7
:10218000E114F10409F460E08D2D77DFCC0FDD1F41
:10219000C5018C0F9D1FEC01E882F982DF91CF9180
:1021A0001F910F91FF90EF90DF90BF90AF90089537
:1021B000C901D8CF7ADFE2E2F3E08CE011928A9590
:1021C000E9F7E6E1F3E08CE011928A95E9F73CD07B
:1021D0003FCFACE0B0E0EFEEF0E10C949F26FE01C3
:1021E0003196DF018CE01D928A95E9F710E00E2F01
:1021F000FF2E612F802F9F2D71DF812F8F5F182F72
:102200008630B9F74CE050E0602F7F2D86E193E0F7
:102210000E94322741E0892B69F440E062E273E0DA
:1022200086E193E012D0182F16DF812F2C96E5E07F
:102230000C94BB268CE0E02FFF2DA6E1B3E00190CB
:102240000D928A95E1F7EACF0895EF92FF920F93EE
:102250001F93CF93DF938C017B01C42F411579F03D
:1022600081E08093C5020E947A1F8093C3029093FD
:10227000C40280E0CDB7DEB7E6E00C94BA26D09178
:10228000C502D115B1F38091C3029091C4020E949E
:102290000B1F059770F34CE050E0B801C7010E9496
:1022A0003227892B41F08CE0F801D70101900D9283
:1022B0008A95E1F7CD2F1092C5028C2FDBCF69CB29
:1022C00008950E94141F0E940B2134DB0E942321D9
:1022D00055DB0E942C210E942F21F1DF0E94452115
:1022E00037DBF9CF8093E6019093E7010895CF9310
:1022F000DF93EC01FB018581811104C081E0DF9156
:10230000CF91089595D98272FE01E052F847EB30E3
:10231000F105A0F7E155F84D0C947C26D1D580E06D
:10232000EECF811521F0C0D5FACF8115E1F3B0D5FC
:10233000F6CF811521F086D2F2CF8115E1F378D264
:10234000EECF811521F098D2EACF8115E1F387D243
:10235000E6CF811521F0AAD2E2CF8115E1F399D21F
:10236000DECF811521F0E8D0DACF8115E1F3D5D0A9
:10237000D6CFA0E0B0E0EFEBF1E10C949B26062F66
:10238000B72EE82F71110EC0411521F0F0E0EC5688
:10239000FD4FE4916E2F7E2F8E2FCDB7DEB7E9E093
:1023A0000C94B726411521F0F0E0EC56FD4FE49176
:1023B00086E0089FE00111242FEF30E0CE01B90143
:1023C0000E943326AB01C801880F991FF5E5F49FE1
:1023D000B001F59F700D1124861B682F660F680FE2
:1023E000C9018B199109E89FD001E99FB00D112413
:1023F0008B2FB69E60011124CD2CD12C89010C1994
:102400001D096801E09F7001E19FF00C1124433029
:10241000510551F18901061B1109B09E6001B19E61
:10242000D00C1124CD2CD12C2C193D09E29F800118
:10243000E39F100D1124712FCC3FD34050F4413055
:102440005105B1F04230510561F47E2FEB2F812F01
:1024500008C04430510579F04630510511F07B2F0A
:102460008F2D6E2FE82F98CF7F2D8E2FEB2FF9CF4A
:102470007E2FEF2DF6CF8E2FE12F7B2FF2CF41E075
:1024800078CF0895FCCF089590910B01291B922FCE
:10249000E091DF01F091E001242F462F682F892F72
:1024A00090E009950895CF93DF93762FE901682F87
:1024B000842FE8DF962F672F9E01482F892FE4DFB6
:1024C000DF91CF91089580912E03843028F483709A
:1024D000846080932E0308958C3AE8F38370886AB1
:1024E000F8CF85E080932E0310922F038FEF809317
:1024F000300380933103109232038EE293E0D4C90B
:1025000090913203933018F49F5F909332038115BA
:1025100019F08EE293E0C8C9089581E0F1CF90915F
:102520003203911519F0915090933203811519F0EF
:102530008EE293E0B9C9089581E0F1CF21E001C0B6
:10254000220F8A95EAF7822F2091DB02611539F07C
:10255000282B2093DB0281E08093CD0208958095A3
:102560002823F7CF21E001C0220F8A95EAF7909146
:10257000DB02922381E0911101C080E00895CF92A7
:10258000DF92FF920F931F93CF93DF9300D000D081
:102590000F92CDB7DEB780912E0380FF19C0C09097
:1025A000CE02D090CF02C114D10449F5E091E301ED
:1025B000F091E40109950F900F900F900F900F90FC
:1025C000DF91CF911F910F91FF90DF90CF900895F1
:1025D00010910D01C090DF01D090E00180910E01BB
:1025E0001817E8F680910B01912F981B20E040E02E
:1025F00060E0892F90E0F60109951F5FEFCF809191
:102600002E0380FFD3CFF12C8F2DACDF811529F164
:10261000F601059115910115110541F245E050E0D3
:10262000B801CE0101960E941C2729812F3FA9F0F5
:102630008A81820F9927991F1816190614F481E0D0
:1026400090E02817190634F420E030E04D816C81C9
:102650008B8129DF0B5F1F4FE1CF82E0C80ED11CB9
:10266000F3948F2D883081F6A1CFEF92FF920F93D4
:102670001F93CF93DF93D82F162F042F80912E0313
:1026800080FF0CC0C0910D018091DF019091E001AD
:102690007C0180910E01C81730F071DFCDB7DEB735
:1026A000E6E00C94BA2680910B019C2F981B202FFA
:1026B000412F6D2F892F90E0F7010995CF5FE9CF6A
:1026C000762F90912E0390FF08C0682F842FDADEBA
:1026D000962F672F482F892FC8CF0895CF93DF9368
:1026E000EC01EC81F0E0E157FE4F4491EEE2F3E0C3
:1026F00062818181E5DF8C818F5F8C83DF91CF9157
:102700000895CF93DF93EC01EEE2F3E04381628121
:102710008C81D6DF8C818F5F8C83DF91CF91089580
:10272000CF93DF93EC01209131039C81892F81703D
:1027300090FD822F692F627091FD622F492F4470A6
:1027400092FD422F92DF8C81019687708C83DF91FE
:10275000CF910895A0E0B0E0E0EBF3E10C949D266A
:10276000D82FE62EF42ED22E90912E0390FF21C06A
:10277000092F06950695E02FF0E0EE54FE4F80817C
:102780008093D9029C7F9430C9F46D2F7E2D842FC5
:1027900079DE962F672F482F892F67DFD0932F037D
:1027A000E0923003F0923103D11419F08EE293E0FD
:1027B0007BD8CDB7DEB7E7E00C94B926823019F4A8
:1027C000F0903103EBCF863019F4D0912F03E6CF90
:1027D0008930D9F3893111F70951E02FE695F0E0FE
:1027E000E157FD4FC49110E060910F01161710F0F2
:1027F000C6DED4CF1C9FC001112470E00E94332696
:10280000862F8D0F00FF02C08D2F861B20910D019A
:10281000210F3327331F4F2D6E2D45DE1F5FE4CF71
:10282000EEE2F3E0282F438162818181885F92CFBD
:1028300081E0F6CFEEE2F3E0282F438162818181CF
:10284000885088CF81E0F6CFEEE2F3E0628121E1AB
:10285000620F08F46FEF282F438181817BCF81E0E5
:10286000F3CFEEE2F3E0628121E1621B08F460E065
:10287000282F438181816ECF81E0F3CFEEE2F3E038
:10288000438121E1420F08F44FEF282F62818181BB
:1028900061CF81E0F3CFEEE2F3E0438121E1421B1F
:1028A00008F440E0282F6281818154CF81E0F3CF8A
:1028B00020E050CF0F931F93CF938C01C0E0609125
:1028C0000F01C61768F05BDEF8018481928190FFEA
:1028D0001DC08F5FF8018483CF911F910F910895E0
:1028E00020910D012C0F3327331F70E08FEF90E004
:1028F0000E944726F801848140913103C69F800DD4
:10290000112460913003CFDDCF5FD9CF8150E2CF6A
:10291000AF92BF92DF92EF92FF920F931F93CF93EC
:10292000DF93FC018281D1E080FDDFEFC0E0809188
:10293000DF019091E0015C0180910F01C817B8F0B0
:102940001EDE8091C702D13009F04DC0811102C056
:1029500080910F0181508093C702DF91CF911F9129
:102960000F91FF90EF90DF90BF90AF90089580910E
:102970000D0190910B01891B8C0F20E040E060E07D
:1029800090E0F501099504E010E0D12CEC2EF12C3B
:102990008091C7028D0D823024F587FF03C090918E
:1029A0000F01890F082E001C00088E150F0499F4E2
:1029B00080910D019701280F311D409131030403CF
:1029C000A001112455954795559547956091300381
:1029D00080912F0368DDDD0E01501040C9F6CF5FF6
:1029E000ABCF80E0DFCF90E0019660910F0170E007
:1029F0000E944726B0CF0F931F93CF93C0910D0134
:102A00008091DF019091E0018C0180910E01C81747
:102A100050F1C0E08091DF019091E0018C01609164
:102A20000F01C61768F1ABDD809109019091C602D4
:102A3000980F9093C60220910A01280F20930A0153
:102A4000121654F420910F012150330B092E001C53
:102A50000008921703061CF0819580930901CF911D
:102A60001F910F91089580910B019C2F981B20E0DE
:102A700040E060E0892F90E0F8010995CF5FC5CF75
:102A8000EC2FF0E070E0CF010E94472620910D016D
:102A9000820F9091C602092E001C0008E917F0056C
:102AA0009CF090910A01092E001C00089E170F0649
:102AB0005CF0282F30E04091310360913003809129
:102AC0002F03F1DCCF5FABCF90910B01891B20E08E
:102AD00040E060E090E0F8010995F4CFA0E0B0E0BC
:102AE000E4E7F5E10C949A26EC01FC812F2F30E00D
:102AF000D9010E9418269B01AC010E9488267B0107
:102B00008C0180E290E08F1B9109FC01A5E5970103
:102B1000A8010E9488265B016C019F01DF010E94D1
:102B200012269B010E9482269B01AC012E0D3F1DA7
:102B3000401F511FB501C6010E945A26022F30E0E6
:102B40000A3220F5A901440F551F420F531F559516
:102B50004795142F1095F12C85E5801BE82E809168
:102B60000F01F81600F10BDD9C8181E0911519F041
:102B7000903219F48FEF8093080180910801890F3A
:102B80008C83CDB7DEB7EAE00C94B62685E590E0FD
:102B9000821B930BAC01440F551F480F591FBAF607
:102BA0004F5F5F4FD4CF8E2DF1FC802F20910D0110
:102BB0002F0D3327331F412F6091300374DCF394C2
:102BC000CECF0F931F93CF93DF938C01C0E0D0E063
:102BD00090910F01C917D1055CF0D1DCF801848117
:102BE000019681708483DF91CF911F910F91089599
:102BF000F801448180910D019E01280F311D6091E3
:102C0000300380912F039695C917D1053CF44115E7
:102C100039F04091310347DC2196DACF4115C9F3F1
:102C200040E0F9CFA0E0B0E0E8E1F6E10C949626B0
:102C3000FC018281882E948081E08483EFE8F1E0BA
:102C4000A490EEE0F2E0E491C0913103C695C15842
:102C5000D0E0CC0FDD1FED2EF12CB12C05E01FEFE5
:102C6000EA198E2F90E03C0180910F01B81630F0E8
:102C700086DCCDB7DEB7EEE00C94B226CB2CD12C9F
:102C8000882D833058F40B9DF0011124E853FD4F3B
:102C900080912F03808380913003818391101BC02A
:102CA0000C9DF0010D9DF00D1124E853FD4F138292
:102CB000128280910D019601280F311D0C9DF001AB
:102CC0000D9DF00D1124E853FD4F428161818081FB
:102CD000EADBB394C9CF0C9DE0010D9DD00D11240A
:102CE000C853DD4F8B818115E1F081508B83189F94
:102CF000C00111246C8170E00E94332670E0FB015A
:102D0000E157FE4F84918A19189FC0011124B30125
:102D10000E94332680913103689FB00111247A8389
:102D2000C8CF0E9410276FEF70E00E9447268E15D3
:102D30009F050CF0BECF882D833090F00E941027A5
:102D40006FEF70E00E94472688830E941027209131
:102D500030032695622F70E00E944726280F2983B2
:102D60000C9DF0010D9DF00D1124E853FD4F1282D2
:102D700080913103893C58F088EC0C9DF0010D9D49
:102D8000F00D1124E853FD4F8483838392CF843167
:102D9000A0F784E1F2CF80912E038E7F80932E03E3
:102DA0008EE293E00E94540C1092DA02E8CB8091FC
:102DB0002E038E7F80932E031092DA02E0CB1092C6
:102DC000DA028091D702811109C081E08093D70295
:102DD00080912E0381708093D602E9CF089560918F
:102DE0002E036695669570E04BE050E080E191E03F
:102DF0000E942527892B19F481E08093DA020E9432
:102E00007A1F8093D0029093D102089590912E035F
:102E100090FF2CC0811559F18B3258F58F73880FB4
:102E2000880F90912E039370892B80932E03611548
:102E300021F08EE293E00E94540C60912E0366957F
:102E4000669570E04BE050E080E191E00E9425271C
:102E5000892B89F01092DA0281E08093D3024091AD
:102E600031036091300380912F0322CD089581E0DA
:102E7000D6CF8AE2D4CFB3DFEFCF682F90912E0365
:102E800096959695892F8F5F8B3208F081E0BECFA3
:102E900081E0F3CF682F90912E0396959695892F18
:102EA000815009F48AE2B2CF81E0F4CF61E0AECF85
:102EB00080912E03816080932E0386958695F6CFB0
:102EC00080912E0380FF01C066CFF2CF60E09ECFDD
:102ED0008091D80281111FC08EE293E00E94520CB3
:102EE00080912E03843028F4FCDA8EE293E00E9475
:102EF000520CE9DA1092DA02E091DD01F091DE0184
:102F0000099580912E0380FF03C086958695DEDFAC
:102F100081E08093D802089580912E038160809390
:102F20002E0386958695D2CF1092D7028091D60235
:102F30008111F2DF54CF0F931F93CF93DF938091D2
:102F4000DA02811509F440C08091D902E0912E0384
:102F5000E695E695E81BE093D202853109F49BC023
:102F600008F053C0893009F48CC008F041C08230A9
:102F700009F475C0863009F47BC0C0EDD7E001E4E8
:102F800012E18091D302811559F01092D302B2D789
:102F90008093D0029093D1021092D4021092D50265
:102FA000A9D72091D0023091D102821B930B8F3F81
:102FB0009F4750F42C0F3D1F2093D0023093D10235
:102FC00080ED92E0F80109958091CD02811559F0CC
:102FD0001092CD028091DA02811105C080912E03FA
:102FE0008695869573DFDF91CF911F910F9108959C
:102FF0008F3009F0C2CFE695F0E0EE57FE4FE49136
:10300000CE2FD0E008E814E1BCCFC4EFD1E001EE50
:1030100015E1843209F4B5CF88F4C8E2D0E00EE6B9
:1030200015E1883109F4ADCF833209F0A6CFEDE781
:10303000F1E0C591D59100E913E1A3CF853209F004
:103040009CCF8E2F63E00E942726E92FF0E0E65800
:10305000FE4FE491CE2FD0E002E116E192CFF0E0F6
:10306000E557FE4FE491CE2FD0E00EE613E189CF75
:10307000F0E0E857FE4FE491CE2FD0E001E813E1F5
:1030800080CFE695F0E0EB57FE4FE491CE2FD0E0F5
:103090000AE514E176CFF0E0E158FE4FE491CE2F3F
:1030A000D0E00BEF14E16DCF089545CF0895219A3C
:1030B0000895FC01EE0FFF1FE80FF91FEA5CFC4FBB
:1030C000618340832283089580933703609336039E
:1030D00040933803089535B13D7F25B122604FB745
:1030E000F89486E393E0FC010196508168E025B9ED
:1030F000000000C057FF35B9550F000000C000C0E8
:1031000000C035B900C06A9591F753E0893395073F
:1031100051F74FBF8FE594E00197F1F700C0000031
:1031200008950C94440C089580E00E942D10817045
:1031300008954FD88FEF96E721E0815090402040CE
:10314000E1F700C0000045D8EFDF811511F0E9DF9D
:103150000DC70895EECF0895CF93DF93EB0186312D
:103160009C4709F50E94180B9D81911599F08A7A68
:1031700091E0811101C090E09093DC02811541F053
:1031800085E324D50E94C50B80E0DF91CF9108959F
:1031900089E2F7CF8091DC02811519F085E32DD506
:1031A000F1CF89E2FCCF81E0F0CFCF93DF93EC0148
:1031B000FB018581811509F4CBC09E013057233274
:1031C000310508F0ABC084E193E00E944E0CFE0193
:1031D000E150F047E232F10520F4E654F84D0C944A
:1031E0007C268091140381608093140390C08091A9
:1031F00015038860809315038AC080911403826050
:10320000F3CF809114038460EFCF80911403886022
:10321000EBCF809115038160EDCF80911503826023
:10322000E9CF809114038061DFCF80911403806225
:10323000DBCF809114038064D7CF0E94F506809184
:1032400014038068D1CF809114038C60CDCF80911E
:1032500015038360CFCF809114038E7FC5CF8091FB
:103260001503877FC7CF809114038D7FBDCF8091D9
:1032700014038B7FB9CF80911403877FB5CF8091E2
:1032800015038E7FB7CF809115038D7FB3CF8091CB
:1032900014038F7EA9CF809114038F7DA5CF8091D9
:1032A00014038F7BA1CF0E94F506809114038F77C2
:1032B0009BCF80911403837F97CF809115038C7FE0
:1032C00099CF90911403892F8B7F92FF8460877F21
:1032D00092FF886089CF80911503982F909590FB7D
:1032E00080F990FB81F986CF90911403892F8F7B11
:1032F00096FF806479CF0E94F50690911403892F80
:1033000097FB87F9805870CF81E00E94560C84E1CA
:1033100093E00E94500C0E94F50680E0DF91CF916F
:10332000089580E0F2CF90911403892F8F7E94FF4F
:1033300080615ACF90911403892F8E7F90FF816016
:1033400053CF90911503892F877F93FF886052CFC9
:1033500081E0E4CF382F25EB3203C001112497FF21
:1033600004C080589109892F089580589F4FFBCF42
:103370008091E30280FF0DC06091200170E0660F34
:10338000771F6038710588F56115710581F1862F09
:10339000089581FF07C06091200184E0689FB0011B
:1033A0001124EFCF82FF04C06091200188E0F6CFA6
:1033B0009091E2029115B9F060911F018091200176
:1033C000961728F098E0899FB0011124DACF899FE1
:1033D000C001112423E0880F991F2A95E1F770E0BE
:1033E0000E944726CECF68E0D2CF8FE7089581E0D4
:1033F00008958091E30280FF0CC060911C0170E091
:1034000075956795759567956115710541F1862FDD
:10341000089581FF06C060911C0170E07595679565
:10342000F3CF60911C0182FD0BC09091E1029115D8
:10343000A1F060911B0180911C01961738F0682F54
:1034400070E06038710500F38FE70895899FC0012F
:10345000112470E00E944726F4CF61E0D8CF81E0CC
:103460000895E82FED5CE33198F5F0E0E452F84D73
:103470000C947C267DDF81958093E702089578DFA8
:10348000FBCF76DF81958093E602089571DFFBCF55
:10349000B0DF8093E8020895ACDF8195FACFA9DF11
:1034A00081958093E9020895A4DFFBCF815D990B9C
:1034B00021E001C0220F8A95EAF78091E502822B74
:1034C0008093E50208958091E30281608093E30296
:1034D00008958091E3028260F9CF8091E3028460D5
:1034E000F5CF4091E6028D3C59F48091E70287FFC9
:1034F0000DC01092E702411559F41092E20208C083
:103500008E3C81F48091E70218169CF3411581F0FE
:103510008091E8029091E902892B09F056C010923F
:10352000E10208958F3C41F447FFF0CF1092E6028C
:103530008091E7028115E0CF803D19F41416B4F3B1
:10354000E5CF9091E802893D29F41916FCF6109216
:10355000E802DCCF8A3D19F497FFD8CFF8CF9091DD
:10356000E9028B3D29F497FFD1CF1092E902CECF2B
:103570008C3D19F41916CCF3C9CF982F915D983072
:1035800078F4815D990B21E001C0220F8A95EAF75A
:10359000822F80959091E50289238093E502B6CF32
:1035A0008D3D31F48091E3028E7F8093E302AECFB4
:1035B0008E3D21F48091E3028D7FF7CF8F3D09F09E
:1035C000A5CF8091E3028B7FF0CF089593D49C0127
:1035D0009091E6028091E702982B21F02093DF0280
:1035E0003093E0029091E8028091E902982B21F05B
:1035F0002093DD023093DE0284EE92E0DBC1E4EE44
:10360000F2E086E011928A95E9F71092E2021092B8
:10361000E1021092E3020895FC01828181110EC043
:10362000838181110BC08481811108C091E0858163
:10363000811101C090E0892F8170089581E0FCCF55
:10364000A6E0B0E0E6E2FBE10C949F2686E0E4EE23
:10365000F2E09E012F5F3F4FD90101900D928A95B4
:10366000E1F71092E6021092E7021092E80210923F
:10367000E9028B819C81892B022FF32E811581F029
:103680008091DF029091E002C6D3AC019091E202FA
:103690009115A1F1809121018417150608F43BC012
:1036A0008D819E81892B89F08091DD029091DE02CF
:1036B000B2D3AC019091E102911509F45AC0809106
:1036C0001D018417150608F462C0602F7F2D84EE5B
:1036D00092E0C2D2811104C084EE92E09DDF81119C
:1036E00075DF86E0E02FFF2DA4EEB2E001900D9291
:1036F0008A95E1F72696E5E00C94BB2620912201FD
:103700008AE0289F900111242417350748F69F5F0F
:103710009093E20202C09F3FD1F71B81111551F037
:1037200027DE91E011160CF09FEF899F802D112468
:103730008093E6021C81111551F01ADE91E01116FA
:103740000CF09FEF899F802D11248093E7028091D8
:10375000E602811509F4A4CF1091E702111509F4CE
:103760009FCFF8DD8093E602812FF4DD8093E7029E
:1037700097CF20911E018AE0289F900111242417E1
:10378000350708F0A2CF9F5F9093E10202C09F3FF0
:10379000D1F71D81111551F02CDE91E011160CF0BE
:1037A0009FEF899F802D11248093E8028E81182F2E
:1037B000811551F01EDE91E011160CF09FEF899FEC
:1037C000802D11248093E9028091E802811509F48B
:1037D0007CCF9091E902192F911509F476CFBADDCB
:1037E0008093E802812FB6DD8093E9026ECF0F93BC
:1037F0001F93CF93DF93C42FD22FFC0185818115B6
:10380000C9F04093EC0276D38093EA029093EB02E6
:103810008C2F805E883048F481E0C1FD84E0C0FDDB
:10382000880FC2FD82950E94E504DF91CF911F9120
:103830000F9108951091EC02141333C08091EA02A5
:103840009091EB02E8D2883C910558F5CD2FC05EEF
:103850001D17C1F0812F805E883048F481E011FD92
:1038600084E010FD880F12FD82950E94EA04C830A2
:1038700048F481E0D1FD84E0D0FD880FD2FD82952F
:103880000E94E504802F0E94DE0481E0D1FD84E0E7
:10389000D0FD880FD2FD8295C83038F60E94EA0428
:1038A000C4CF8C2F805E883008F0BFCF81E0C1FD8F
:1038B00084E0C0FD880FC2FD8295F0CF0F93FC011C
:1038C000CB01E851FC47E730F10588F5E151F84DAF
:1038D0000C947C2606E221EE41EE6AE17CE787DF6C
:1038E00080E00F91089507E225EE45EE6BE17CE75D
:1038F000F6CF06E221EE40EE68E17CE7F0CF07E28A
:1039000025EE44EE69E17CE7EACF06E221EE42EEE5
:103910006CE17CE7E4CF07E225EE46EE6DE17CE763
:10392000DECF08E221E045EE6EE17CE7D8CFFB0177
:10393000858181111092EC0281E0D3CF8093F10256
:103940009093F202089508950895EDD1982F81E0A3
:10395000913009F080E00895E091F102F091F202D7
:10396000309739F00190F081E02D309711F00995F2
:10397000089580E00895E091F102F091F20230970D
:1039800031F00280F381E02D309709F00995089518
:10399000E091F102F091F202309759F024813581E3
:1039A000232B39F026E0DC012C930480F581E02DF7
:1039B00009950895E091F102F091F202309759F0E3
:1039C00026813781232B39F022E0DC012C930680FD
:1039D000F781E02D09950895A3E0B0E0E2EFFCE166
:1039E0000C94A2262091EF023091F002281739079B
:1039F000B1F08093EF029093F002E091F102F09128
:103A0000F202309761F00084F185E02D309739F0B3
:103A100023E029838A839B83CE010196099523960F
:103A2000E2E00C94BE26A3E0B0E0E9E1FDE10C94F5
:103A3000A2262091ED023091EE0228173907B1F04D
:103A40008093ED029093EE02E091F102F091F20288
:103A5000309761F00084F185E02D309739F024E053
:103A600029838A839B83CE01019609952396E2E000
:103A70000C94BE26CF93DF93C0910601D09107012D
:103A800064DF811521F08091140387FD11C09E0130
:103A90002E5F3F4F96E080E09150F90140812F5F0B
:103AA0003F4F41118F5F9111F7CFDF91CF91089573
:103AB00020910401309105012E5F3F4F9EE1EBCF35
:103AC000CF93C82F811102C080E02EC03EDF811548
:103AD00021F08091140387FD0FC080910601909121
:103AE0000701FC013296089620812C17F9F03196D7
:103AF000E817F907C9F7E8CF8C2F86958695869544
:103B0000C03F10F7E0910401F0910501E80FF11DAD
:103B1000228130E0C77081E001C0880FCA95EAF7C2
:103B2000282381E0232B81F2CF91089581E0FCCFFF
:103B30009C01FC01329680E09FEF4081461759F0CE
:103B400031969F3F19F4411101C0982F8F5F863045
:103B5000A1F79F3F09F40895290F311D97FD3A956C
:103B6000F90162830895FC0132960896219126138B
:103B700002C0DF011E92E817F907C1F70895262F4A
:103B8000269526952695603F60F4820F911DFC01D5
:103B9000677021E001C0220F6A95EAF78281822BCB
:103BA00082830895262F269526952695603F68F4F2
:103BB000820F911DFC019DEF61FD97EF60FF9595D0
:103BC00062FD92958281892382830895CF93C82FC5
:103BD000BCDE6C2F811559F08091140387FF07C05C
:103BE0008091040190910501CADFCF9108958091E1
:103BF0000601909107019CDFF8CFCF93C82FA5DE77
:103C00006C2F811559F08091140387FF07C08091B4
:103C1000040190910501C6DFCF91089580910601BE
:103C200090910701A0DFF8CF90DE811571F08091AF
:103C3000140387FF0AC0E0910401F0910501329658
:103C40008EE111928A95E9F70895E0910601F091CD
:103C50000701329686E0F5CFDC01FB0111969C91BD
:103C600011978181981322C012968C911297811519
:103C700019F0928189131AC013968C9113978115AC
:103C800019F09381891312C015968C91159781159F
:103C900019F0958189130AC014969C91911521F011
:103CA00081E02481291303C080E001C081E081709C
:103CB00008950895FECF08958F5F80932601609147
:103CC0002301709124018091250190912601F2CF6A
:103CD00083E08093260160912301709124018091FB
:103CE000250190912601E6CFE7CF089581E08093EA
:103CF000260160912301709124018091250190910A
:103D00002601D8CFF3CF089591E0811101C090E052
:103D100090932501609123017091240180912501E8
:103D200090912601C7CF80912501089580932401A9
:103D300060912301709124018091250190912601C9
:103D4000B9CF8091240108958093230160912301CC
:103D5000709124018091250190912601ABCF809133
:103D60002301089508950895FECF089508950895B4
:103D7000F9CF08950F931F93CF93DF93F7DF0E943E
:103D8000E910F5DF03EF12E0C0E0D0E08C2F0E94D5
:103D90002D109C01F801819331938F0191E0232B29
:103DA00009F490E0D92BCF5FC63081F78D2FDF91DA
:103DB000CF911F910F910895E82FF0E0EE0FFF1FB4
:103DC000ED50FD4F81E090E002C0880F991F6A9589
:103DD000E2F7BC01808191816823792381E0672B20
:103DE00009F480E00895411115C0E82FF0E0EE0FCE
:103DF000FF1FED50FD4F81E090E002C0880F991F3A
:103E00006A95E2F7809590952081318182239323F2
:103E1000808391830895CF93DF93EC016BD08C1B4B
:103E20009D0BDF91CF91089585B7806885BF85B7D9
:103E3000806885BF08951F921FB61F9211248F932B
:103E40009F93AF93BF938091FF02811113C0809124
:103E5000390390913A03A0913B03B0913C03419602
:103E6000A11DB11D8093390390933A03A0933B03A6
:103E7000B0933C03BF91AF919F918F911F901FBE54
:103E80001F90189580914103843031F10E94E9031D
:103E90001092FF0288E190E020E40FB6F894A89514
:103EA000809360000FBE2093600083B7817F8460A1
:103EB00083BF83B7816083BF7894889583B78E7FF3
:103EC00083BF0FB6F894A8958091600088618093B5
:103ED0006000109260000FBE08950E94F5060C94D9
:103EE000EF0382E084BD93E095BD9AEF97BD809388
:103EF0006E0008952FB7F8948091390390913A039A
:103F0000A0913B03B0913C032FBF08952FB7F894C5
:103F10006091390370913A0380913B0390913C0387
:103F20002FBF089578941F921FB61F9211248F936C
:103F30009F93AF93BF938091390390913A03A091DF
:103F40003B03B0913C030196A11DB11D8093390341
:103F500090933A03A0933B03B0933C03BF91AF917E
:103F60009F918F911F901FBE1F90189581E08093A5
:103F7000E00080E28093D8001092C9008FE19EE4B7
:103F80000197F1F700C00000A7E0B0EBCD018093EE
:103F90004A0390934B03A0934C03B0934D0388E1E5
:103FA0009CE00FB6F894A895809360000FBE9093A4
:103FB0006000FFCF88E19CE00FB6F894A89580934D
:103FC00060000FBE90936000FFCF9B01BA019091FB
:103FD00041039430D9F48F708093E9009FEF809172
:103FE000E80085FD06C085ED8A95F1F70000915047
:103FF000B1F78091E80085FF09C040E050E0C901B9
:10400000B6D18091E8008E778093E800089543E070
:1040100050E0BC0182E0D9CF46E050E0BC0182E034
:10402000D4CF40E250E0BC0182E0CFCFCF93DF930A
:10403000EC0179DE48E050E0BE0181E0C6DF88E0B7
:10404000FE01A0E0B3E001900D928A95E1F7DF91C7
:10405000CF91089580914003811107C016D366D394
:104060008091E20084608093E20008951092400302
:1040700008953CDE81E048CE60913D0381E061110E
:1040800001C080E025CE9091410381E0943009F099
:1040900080E060913D0328CE42E061EC81E071D286
:1040A00042E261EC82E06DD29091410381E0943074
:1040B00009F080E060913D03FFCD8091430389309A
:1040C00081F148F4823009F496C0833009F457C076
:1040D000813041F008958A3009F480C08B3009F4B2
:1040E00068C0089580914203813A09F047C08091E9
:1040F000E800877F8093E800809146039091470312
:10410000892B59F060E080E090E070E07DD18091F3
:10411000E8008B778093E800089568E080E093E002
:10412000F4CF80914203813249F58091460390910A
:104130004703029718F58091E800877F8093E80095
:104140008091E80082FF16C02091F3008091F20078
:10415000922F029731F48091F100813011F0863076
:1041600019F48091F100E2DD8091E8008B77809373
:10417000E8003BC2809141038111E2CF0895809114
:104180004203813AD9F78091460390914703892BE6
:10419000A9F78091E800877F8093E8008091E8008C
:1041A00080FFFCCFC0DD8093F1008091E8008E7726
:1041B000DECF80914203813209F7809146039091CE
:1041C0004703892BD9F68091E800877F8093E80028
:1041D0000CD28091440398DD0C94F5068091420343
:1041E000813261F68091E800877F8093E800FDD1FD
:1041F00080914503A9CD80914203813A09F0BECF59
:104200008091E800877F8093E8008091E80080FF3C
:10421000FCCFA5DDC8CF84B7877F84BF0FB6F894E5
:10422000A895809160008861809360001092600082
:104230000FBE80E890E00FB6F894809361009093F1
:1042400061000FBE5FCD21D271D2E2EEF0E080813D
:10425000846080837894CDC487E291E06FCB8091B5
:104260004103853029F480914103853011F035CE2A
:10427000089508DE7FDD8115B1F380913F0381153C
:1042800091F35FD00E94F506EECF08959A01409118
:1042900048035091490300C0492F50E04330510575
:1042A000C9F070F441305105E9F14230510571F423
:1042B0008BE390E048ED53E0F9014083518308958A
:1042C00041325105E9F04232510519F180E090E0A8
:1042D00040E0F2CF482F50E0813061F0423051058C
:1042E00061F0E4EDF3E04115510581F7849190E030
:1042F000AF01E2CFE4EBF3E0F9CFE4E9F3E0F6CF8E
:1043000061307105A0F011F789E090E043E054E0DE
:10431000D3CF6130710580F0C9F686EB90E045E2BD
:1043200054E0CACF82E190E043E154E0C5CF89E098
:1043300090E04AEE53E0C0CF84E490E04BED54E0CF
:10434000BBCF80E189BD82E189BD09B400FEFDCF0C
:104350008091D8008F7D8093D8008091E0008260AA
:104360008093E0008091E00081FDFCCF0895AF9242
:10437000BF92CF92DF92FF920F931F93CF93DF9361
:104380006C01EB018A0150D1F82E811123C0011577
:10439000110539F0F80180819181C81BD90BC80E35
:1043A000D91EA12CB12C2097A9F08091E80085FDA1
:1043B00021C08091E8008E778093E80001151105F7
:1043C000A1F0F801808191818A0D9B1D80839183EA
:1043D00085E0F82E8F2DDF91CF911F910F91FF90E7
:1043E000DF90CF90BF90AF9008951ED18115E9F274
:1043F000F82EF0CFF60181916F018093F1002197A3
:104400008FEFA81AB80ACFCFFC0120914803309152
:1044100049032617370720F06115710569F09B01E4
:1044200090E02115310571F491110CC08091E800E4
:1044300082FF38C080E008959091E8009E779093C5
:10444000E800EDCF809141038115C1F18530C1F1C4
:104450008091E80083FD30C08091E80082FDE6CFC6
:104460008091E80080FFDDCF8091F3004091F20061
:10447000582F2115310519F04830510558F091E0B9
:104480004830510509F090E04091E8004E774093A4
:10449000E800C7CF81918093F100215031094F5F2F
:1044A0005F4FE7CF80914103811541F0853041F0A6
:1044B0008091E80083FFBACF81E0089582E00895FB
:1044C00083E00895FC0120914803309149032617A9
:1044D000370720F06115710569F09B0190E0211507
:1044E000310571F491110CC08091E80082FF39C050
:1044F00080E008958091E8008E778093E800EDCF0A
:10450000809141038115C9F18530C9F18091E8009E
:1045100083FD31C08091E80082FDE6CF8091E80004
:1045200080FFDDCF8091F3004091F200582F2115DC
:10453000310519F04830510558F091E048305105E7
:1045400009F090E08091E8008E778093E800C7CF73
:1045500084918093F1003196215031094F5F5F4F74
:10456000E6CF80914103811541F0853041F0809183
:10457000E80083FFB9CF81E0089582E0089583E0E9
:104580000895982F973028F08F708093E90081E08C
:1045900008959093E900242F762F50E0981731F07A
:1045A0007091EC002091ED005091F00021FD02C0CF
:1045B0009F5FE8CF3091EB003E7F3093EB0030916E
:1045C000ED003D7F3093ED003091EB003160309392
:1045D000EB007093EC002093ED005093F0002091DD
:1045E000EE0027FDE5CF80E008958091420387FF2C
:1045F00013C08091E80082FF06C08091E8008B77AD
:104600008093E8000895809141038111F2CF0895CD
:10461000809141038115D9F38091E80080FFF8CFA4
:104620008091E8008E77ECCF2091E4003091E50096
:1046300095E6A9012091EC00822F817020FF06C031
:104640008091E80080FF06C080E008952091E80096
:1046500022FD1AC080914103811589F0853089F0CF
:104660008091EB0085FD0FC02091E4003091E500C2
:1046700042175307F9F29150E1F684E0089582E081
:10468000089583E0089581E008955FD066D0E0EE5C
:10469000F0E0808181608083E8ED80818F77808386
:1046A00019BCA7EDB0E08C918E7F8C9380818F7EBA
:1046B0008083109240030895CF93DF9346D04DD06E
:1046C000C8EDD0E088818F7788838881806888836F
:1046D00088818F7D888319BC1092410310923D031D
:1046E00010923F0310923E03E0EEF0E080818B7F5A
:1046F000808388818160888342E060E080E041DFE0
:10470000E1EEF0E080818E7F8083E2EE8081816047
:104710008083808188608083E0EE80818E7F8083CB
:10472000888180618883DF91CF910895E8EDF0E082
:1047300080818F7E8083E7ED80818160808384E04B
:1047400082BF81E080934003B7CFE8EDF0E0808145
:104750008E7F80831092E20008951092DA0010920A
:10476000E10008951F920F920FB60F9211242F931C
:104770003F934F935F936F937F938F939F93AF93E9
:10478000BF93EF93FF938091E10082FF0AC0809175
:10479000E20082FF06C08091E1008B7F8093E10000
:1047A00027D28091DA0080FF18C08091D80080FF66
:1047B00014C08091DA008E7F8093DA008091D90056
:1047C00080FF8FC080E189BD82E189BD09B400FE10
:1047D000FDCF81E0809341033DDC8091E10080FFCB
:1047E00018C08091E20080FF14C08091E2008E7FAB
:1047F0008093E2008091E20080618093E2008091EA
:10480000D80080628093D80019BC85E08093410372
:1048100033DC8091E10084FF28C08091E20084FFB6
:1048200024C080E189BD82E189BD09B400FEFDCFCD
:104830008091D8008F7D8093D8008091E1008F7E99
:104840008093E1008091E2008F7E8093E20080916E
:10485000E20081608093E20080913D03811509F4BC
:1048600045C084E0809341030EDC8091E10083FF2A
:1048700027C08091E20083FF23C08091E100877F01
:104880008093E10082E08093410310923D03809188
:10489000E1008E7F8093E1008091E2008E7F809323
:1048A000E2008091E20080618093E20042E060E0FB
:1048B00080E067DE8091F00088608093F000D9DBB3
:1048C000FF91EF91BF91AF919F918F917F916F91E8
:1048D0005F914F913F912F910F900FBE0F901F90BE
:1048E000189519BC10924103C1DB77CF8091E3008A
:1048F00087FF02C083E0B6CF81E0B4CF1F920F9252
:104900000FB60F9211241F932F933F934F935F93F2
:104910006F937F938F939F93AF93BF93CF93DF93C7
:10492000EF93FF93E9EEF0E080811091EC008F703F
:1049300010FB112717F9182B1082C0EFD0E08881E7
:10494000877F888378941CD0E9EEF0E0108288811C
:10495000886088831F701083FF91EF91DF91CF9162
:10496000BF91AF919F918F917F916F915F914F9187
:104970003F912F911F910F900FBE0F901F90189590
:10498000AAE2B0E0E5ECF4E2DCC182E493E0FC01F1
:1049900001962091F100208323E08A349207B9F731
:1049A0008CDB8091E80083FF37C0809142039091B7
:1049B00043039A3088F5E92FF0E0EA50F84D9CC1A6
:1049C000803889F0823841F5809146038F708730B6
:1049D00018F58093E9008091EB0085FB882780F92A
:1049E0001092E90006C080913F03880F90913E032A
:1049F000892B9091E800977F9093E8008093F100D5
:104A00001092F1008091E8008E7722C0811115C0CC
:104A100080914403813001F18091E80083FF0AC056
:104A20008091E800877F8093E8008091EB008062AE
:104A30008093EB00AA96E3E0A0C1823069F78091F1
:104A40004403811579F01092E9008091E800877F96
:104A50008093E800CADDE0CF933009F080E08093D6
:104A60003F03F1CF809146038F70282F21502630CD
:104A700098F68093E9002091EB0020FFE4CF93307B
:104A800031F48091EB0080628093EB00DCCF909159
:104A9000EB0090619093EB0021E001C0220F8A951A
:104AA000EAF72093EA001092EA008091EB00886018
:104AB000EBCF8111B1CF809144038F77182F809174
:104AC000E3008078812B8093E3008091E800877F6A
:104AD0008093E8008ADD8091E80080FFFCCF809120
:104AE000E30080688093E30083E0111101C082E05D
:104AF0008093410391CF8058823008F08DCF809110
:104B00004403909145038C3D23E0920789F583E0AF
:104B10008A838AE289834FB7F894DE01139620E0F6
:104B20003EE051E2E32FF0E050935700849120FFE4
:104B300003C082958F703F5F8F708A30B8F0895CB8
:104B40008D931D922F5F243169F74FBF8091E8004C
:104B5000877F8093E8006AE270E0CE01019654DC22
:104B60008091E8008B778093E80056CF805DE8CF96
:104B70006091460370914703AE014F5F5F4F86DB44
:104B8000BC01892B09F448CF9091E800977F90935E
:104B9000E80089819A8196DCE3CF803809F03CCF28
:104BA0008091E800877F8093E80080913D038093A7
:104BB000F10028CF811130CF90914403923008F05A
:104BC0002BCF8091E800877F8093E80090933D038E
:104BD0000CDD80913D03811529F084E08093410331
:104BE0005BDA1ACF8091E30087FDF7CF81E0F6CF43
:104BF0000895CF9380914103811591F08091E90050
:104C0000C091EC008F70C0FBCC27C7F9C82B109265
:104C1000E9008091E80083FDB3DECF70C093E90026
:104C2000CF91089505D0332312F48A1B9B0B6BC0E0
:104C3000A29FB001B39FC001A39F700D811D1124DD
:104C4000911DB29F700D811D1124911D089599270A
:104C500078E0880F991F961708F0961B881F7A95A1
:104C6000C9F780950895AA1BBB1B51E107C0AA1F75
:104C7000BB1FA617B70710F0A61BB70B881F991FFD
:104C80005A95A9F780959095BC01CD01089597FBA1
:104C9000072E16F4009406D077FD08D0E4DF07FC59
:104CA00005D03EF4909581959F4F0895709561953C
:104CB0007F4F0895A1E21A2EAA1BBB1BFD010DC058
:104CC000AA1FBB1FEE1FFF1FA217B307E407F507BC
:104CD00020F0A21BB30BE40BF50B661F771F881F98
:104CE000991F1A9469F760957095809590959B012E
:104CF000AC01BD01CF010895EE0FFF1F0590F491A7
:104D0000E02D099495DFB7FF0895821B930B08955A
:104D10008FDFA59F900DB49F900DA49F800D911DD6
:104D2000112408952F923F924F925F926F927F923B
:104D30008F929F92AF92BF92CF92DF92EF92FF92AB
:104D40000F931F93CF93DF93CDB7DEB7CA1BDB0B57
:104D50000FB6F894DEBF0FBECDBF09942A883988FC
:104D600048885F846E847D848C849B84AA84B98403
:104D7000C884DF80EE80FD800C811B81AA81B9810F
:104D8000CE0FD11D0FB6F894DEBF0FBECDBFED0123
:104D90000895AAE0B0E0EEECF6E2D4CF89879A87D6
:104DA000FC01608171818281938100977040604035
:104DB00021F464E279ED8BE597E02DE133EF41E0FA
:104DC00050E09DD029833A834B835C839B01AC01E7
:104DD000A7EAB1E49DDF6D837E838F839887ACEE75
:104DE000B4EF29813A814B815C81A7D02D813E812E
:104DF0004F815885260F371F481F591FC901DA01F7
:104E0000B7FF03C00197A109B048E985FA858083FF
:104E10009183A283B3839F772A96E2E0AFCFB9CF85
:104E200080E091E0B6CF8093000190930101109251
:104E30000201109203010895FB01DC0102C00590FC
:104E40000D9241505040D8F70895FC014150504018
:104E500030F001900616D1F73197CF0108958827D9
:104E600099270895FB01DC0104C08D910190801900
:104E700021F441505040C8F7881B990B0895F999C7
:104E8000FECF92BD81BDF89A992780B50895A6E11D
:104E9000B0E044E050E025C0A8E1B0E042E050E0DE
:104EA00020C0262FF999FECF92BD81BDF89A0197B7
:104EB00000B4021639F01FBA20BD0FB6F894FA9A62
:104EC000F99A0FBE08950396272FECDFEADF252F0E
:104ED000E9DF242FE7CF0196272FE4DFE2CFDC01C3
:104EE000CB01FC01F999FECF06C0F2BDE1BDF89AF5
:104EF000319600B40D9241505040B8F70895052EF8
:104F000097FB16F400940FD057FD05D0D3DE07FCB5
:104F100002D046F408C050954095309521953F4FFA
:104F20004F4F5F4F089590958095709561957F4F95
:104F30008F4F9F4F0895B7FFEBCEEADE821B930B96
:104F40000895F894FFCF2A052A0561056105B80583
:104F5000D40552055205D8054A06570657068E1144
:104F60009111951199119D11A111A511A911AD11C1
:104F7000B111B5112B199A193319FD1801193719E7
:104F800005193B1947191119931915194B191919B5
:104F90004F1974191D1953197B19231959196119BE
:104FA00009193F190D19431927195D196B1984192E
:104FB0009119F7182F19A1193A1A3F1A411A461ACE
:104FC000561A561A561A561A561A561A561A561A61
:104FD000481A4C1A4F1A541A631A691A6D1A791C16
:104FE0007F1C6A1C731C851C8B1C911CE0240625ED
:104FF0000C2506250C2559257B250C25CD25DA25E4
:10500000010000008E02AE02010102000100010158
:1050100001191A1B1C1D1E1F202122280850011EC9
:105020000A140100000100A11E162011200C200707
:1050300020E200E900EA00B500B600B700CD008329
:1050400001CC008A0192019401210223022402254D
:1050500002260227022A02B300B4006F0070009FEC
:1050600001CB019F02A002E200E900EA00B500B610
:1050700000B700CD008301CC008A01920194012188
:1050800002230224022502260227022A02B300B4C8
:10509000006F0070009F01CB019F02A00233676682
:1050A0003635349796F0F1F4F5F6F7959430329161
:1050B0009293000102020202060606090909090983
:1050C000090F0F0F0F0F0F151515181919191919A9
:1050D0001919191919232425252525252557185966
:0650E0001864186B1800B3
:00000001FF
